{
  "_format": "hh-sol-artifact-1",
  "contractName": "ERC721NFT",
  "sourceName": "contracts/ERC721NFT.sol",
  "abi": [
    {
      "inputs": [],
      "stateMutability": "nonpayable",
      "type": "constructor"
    },
    {
      "inputs": [
        {
          "internalType": "address",
          "name": "sender",
          "type": "address"
        },
        {
          "internalType": "uint256",
          "name": "tokenId",
          "type": "uint256"
        },
        {
          "internalType": "address",
          "name": "owner",
          "type": "address"
        }
      ],
      "name": "ERC721IncorrectOwner",
      "type": "error"
    },
    {
      "inputs": [
        {
          "internalType": "address",
          "name": "operator",
          "type": "address"
        },
        {
          "internalType": "uint256",
          "name": "tokenId",
          "type": "uint256"
        }
      ],
      "name": "ERC721InsufficientApproval",
      "type": "error"
    },
    {
      "inputs": [
        {
          "internalType": "address",
          "name": "approver",
          "type": "address"
        }
      ],
      "name": "ERC721InvalidApprover",
      "type": "error"
    },
    {
      "inputs": [
        {
          "internalType": "address",
          "name": "operator",
          "type": "address"
        }
      ],
      "name": "ERC721InvalidOperator",
      "type": "error"
    },
    {
      "inputs": [
        {
          "internalType": "address",
          "name": "owner",
          "type": "address"
        }
      ],
      "name": "ERC721InvalidOwner",
      "type": "error"
    },
    {
      "inputs": [
        {
          "internalType": "address",
          "name": "receiver",
          "type": "address"
        }
      ],
      "name": "ERC721InvalidReceiver",
      "type": "error"
    },
    {
      "inputs": [
        {
          "internalType": "address",
          "name": "sender",
          "type": "address"
        }
      ],
      "name": "ERC721InvalidSender",
      "type": "error"
    },
    {
      "inputs": [
        {
          "internalType": "uint256",
          "name": "tokenId",
          "type": "uint256"
        }
      ],
      "name": "ERC721NonexistentToken",
      "type": "error"
    },
    {
      "inputs": [
        {
          "internalType": "address",
          "name": "owner",
          "type": "address"
        }
      ],
      "name": "OwnableInvalidOwner",
      "type": "error"
    },
    {
      "inputs": [
        {
          "internalType": "address",
          "name": "account",
          "type": "address"
        }
      ],
      "name": "OwnableUnauthorizedAccount",
      "type": "error"
    },
    {
      "anonymous": false,
      "inputs": [
        {
          "indexed": true,
          "internalType": "address",
          "name": "owner",
          "type": "address"
        },
        {
          "indexed": true,
          "internalType": "address",
          "name": "approved",
          "type": "address"
        },
        {
          "indexed": true,
          "internalType": "uint256",
          "name": "tokenId",
          "type": "uint256"
        }
      ],
      "name": "Approval",
      "type": "event"
    },
    {
      "anonymous": false,
      "inputs": [
        {
          "indexed": true,
          "internalType": "address",
          "name": "owner",
          "type": "address"
        },
        {
          "indexed": true,
          "internalType": "address",
          "name": "operator",
          "type": "address"
        },
        {
          "indexed": false,
          "internalType": "bool",
          "name": "approved",
          "type": "bool"
        }
      ],
      "name": "ApprovalForAll",
      "type": "event"
    },
    {
      "anonymous": false,
      "inputs": [
        {
          "indexed": true,
          "internalType": "address",
          "name": "previousOwner",
          "type": "address"
        },
        {
          "indexed": true,
          "internalType": "address",
          "name": "newOwner",
          "type": "address"
        }
      ],
      "name": "OwnershipTransferred",
      "type": "event"
    },
    {
      "anonymous": false,
      "inputs": [
        {
          "indexed": true,
          "internalType": "address",
          "name": "subscriber",
          "type": "address"
        },
        {
          "indexed": true,
          "internalType": "address",
          "name": "user",
          "type": "address"
        }
      ],
      "name": "SubscriptionAccepted",
      "type": "event"
    },
    {
      "anonymous": false,
      "inputs": [
        {
          "indexed": true,
          "internalType": "address",
          "name": "subscriber",
          "type": "address"
        },
        {
          "indexed": true,
          "internalType": "address",
          "name": "user",
          "type": "address"
        }
      ],
      "name": "SubscriptionRejected",
      "type": "event"
    },
    {
      "anonymous": false,
      "inputs": [
        {
          "indexed": true,
          "internalType": "address",
          "name": "from",
          "type": "address"
        },
        {
          "indexed": true,
          "internalType": "address",
          "name": "to",
          "type": "address"
        }
      ],
      "name": "SubscriptionRequestSent",
      "type": "event"
    },
    {
      "anonymous": false,
      "inputs": [
        {
          "indexed": true,
          "internalType": "address",
          "name": "from",
          "type": "address"
        },
        {
          "indexed": true,
          "internalType": "address",
          "name": "to",
          "type": "address"
        },
        {
          "indexed": true,
          "internalType": "uint256",
          "name": "tokenId",
          "type": "uint256"
        }
      ],
      "name": "Transfer",
      "type": "event"
    },
    {
      "anonymous": false,
      "inputs": [
        {
          "indexed": true,
          "internalType": "address",
          "name": "user",
          "type": "address"
        },
        {
          "indexed": false,
          "internalType": "string",
          "name": "name",
          "type": "string"
        },
        {
          "indexed": false,
          "internalType": "string",
          "name": "bio",
          "type": "string"
        },
        {
          "indexed": false,
          "internalType": "string",
          "name": "picture",
          "type": "string"
        }
      ],
      "name": "UserRegistered",
      "type": "event"
    },
    {
      "anonymous": false,
      "inputs": [
        {
          "indexed": true,
          "internalType": "address",
          "name": "user",
          "type": "address"
        }
      ],
      "name": "WalletConnected",
      "type": "event"
    },
    {
      "inputs": [
        {
          "internalType": "address",
          "name": "_from",
          "type": "address"
        }
      ],
      "name": "acceptSubscriptionRequest",
      "outputs": [],
      "stateMutability": "nonpayable",
      "type": "function"
    },
    {
      "inputs": [
        {
          "internalType": "address",
          "name": "to",
          "type": "address"
        },
        {
          "internalType": "uint256",
          "name": "tokenId",
          "type": "uint256"
        }
      ],
      "name": "approve",
      "outputs": [],
      "stateMutability": "nonpayable",
      "type": "function"
    },
    {
      "inputs": [
        {
          "internalType": "address",
          "name": "owner",
          "type": "address"
        }
      ],
      "name": "balanceOf",
      "outputs": [
        {
          "internalType": "uint256",
          "name": "",
          "type": "uint256"
        }
      ],
      "stateMutability": "view",
      "type": "function"
    },
    {
      "inputs": [],
      "name": "connectWallet",
      "outputs": [],
      "stateMutability": "nonpayable",
      "type": "function"
    },
    {
      "inputs": [
        {
          "internalType": "uint256",
          "name": "tokenId",
          "type": "uint256"
        }
      ],
      "name": "getApproved",
      "outputs": [
        {
          "internalType": "address",
          "name": "",
          "type": "address"
        }
      ],
      "stateMutability": "view",
      "type": "function"
    },
    {
      "inputs": [
        {
          "internalType": "address",
          "name": "_user",
          "type": "address"
        }
      ],
      "name": "getSubscriberCount",
      "outputs": [
        {
          "internalType": "uint256",
          "name": "",
          "type": "uint256"
        }
      ],
      "stateMutability": "view",
      "type": "function"
    },
    {
      "inputs": [
        {
          "internalType": "address",
          "name": "_user",
          "type": "address"
        }
      ],
      "name": "getSubscribers",
      "outputs": [
        {
          "internalType": "address[]",
          "name": "",
          "type": "address[]"
        }
      ],
      "stateMutability": "view",
      "type": "function"
    },
    {
      "inputs": [],
      "name": "getSubscriptionRequests",
      "outputs": [
        {
          "internalType": "address[]",
          "name": "",
          "type": "address[]"
        }
      ],
      "stateMutability": "view",
      "type": "function"
    },
    {
      "inputs": [
        {
          "internalType": "address",
          "name": "_user",
          "type": "address"
        }
      ],
      "name": "getUserInfo",
      "outputs": [
        {
          "internalType": "string",
          "name": "",
          "type": "string"
        },
        {
          "internalType": "string",
          "name": "",
          "type": "string"
        },
        {
          "internalType": "string",
          "name": "",
          "type": "string"
        },
        {
          "internalType": "bool",
          "name": "",
          "type": "bool"
        }
      ],
      "stateMutability": "view",
      "type": "function"
    },
    {
      "inputs": [
        {
          "internalType": "address",
          "name": "owner",
          "type": "address"
        },
        {
          "internalType": "address",
          "name": "operator",
          "type": "address"
        }
      ],
      "name": "isApprovedForAll",
      "outputs": [
        {
          "internalType": "bool",
          "name": "",
          "type": "bool"
        }
      ],
      "stateMutability": "view",
      "type": "function"
    },
    {
      "inputs": [],
      "name": "name",
      "outputs": [
        {
          "internalType": "string",
          "name": "",
          "type": "string"
        }
      ],
      "stateMutability": "view",
      "type": "function"
    },
    {
      "inputs": [],
      "name": "owner",
      "outputs": [
        {
          "internalType": "address",
          "name": "",
          "type": "address"
        }
      ],
      "stateMutability": "view",
      "type": "function"
    },
    {
      "inputs": [
        {
          "internalType": "uint256",
          "name": "tokenId",
          "type": "uint256"
        }
      ],
      "name": "ownerOf",
      "outputs": [
        {
          "internalType": "address",
          "name": "",
          "type": "address"
        }
      ],
      "stateMutability": "view",
      "type": "function"
    },
    {
      "inputs": [
        {
          "internalType": "string",
          "name": "_name",
          "type": "string"
        },
        {
          "internalType": "string",
          "name": "_bio",
          "type": "string"
        },
        {
          "internalType": "string",
          "name": "_picture",
          "type": "string"
        }
      ],
      "name": "registerUser",
      "outputs": [],
      "stateMutability": "nonpayable",
      "type": "function"
    },
    {
      "inputs": [],
      "name": "renounceOwnership",
      "outputs": [],
      "stateMutability": "nonpayable",
      "type": "function"
    },
    {
      "inputs": [
        {
          "internalType": "address",
          "name": "from",
          "type": "address"
        },
        {
          "internalType": "address",
          "name": "to",
          "type": "address"
        },
        {
          "internalType": "uint256",
          "name": "tokenId",
          "type": "uint256"
        }
      ],
      "name": "safeTransferFrom",
      "outputs": [],
      "stateMutability": "nonpayable",
      "type": "function"
    },
    {
      "inputs": [
        {
          "internalType": "address",
          "name": "from",
          "type": "address"
        },
        {
          "internalType": "address",
          "name": "to",
          "type": "address"
        },
        {
          "internalType": "uint256",
          "name": "tokenId",
          "type": "uint256"
        },
        {
          "internalType": "bytes",
          "name": "data",
          "type": "bytes"
        }
      ],
      "name": "safeTransferFrom",
      "outputs": [],
      "stateMutability": "nonpayable",
      "type": "function"
    },
    {
      "inputs": [
        {
          "internalType": "address",
          "name": "_to",
          "type": "address"
        }
      ],
      "name": "sendSubscriptionRequest",
      "outputs": [],
      "stateMutability": "nonpayable",
      "type": "function"
    },
    {
      "inputs": [
        {
          "internalType": "address",
          "name": "operator",
          "type": "address"
        },
        {
          "internalType": "bool",
          "name": "approved",
          "type": "bool"
        }
      ],
      "name": "setApprovalForAll",
      "outputs": [],
      "stateMutability": "nonpayable",
      "type": "function"
    },
    {
      "inputs": [
        {
          "internalType": "bytes4",
          "name": "interfaceId",
          "type": "bytes4"
        }
      ],
      "name": "supportsInterface",
      "outputs": [
        {
          "internalType": "bool",
          "name": "",
          "type": "bool"
        }
      ],
      "stateMutability": "view",
      "type": "function"
    },
    {
      "inputs": [],
      "name": "symbol",
      "outputs": [
        {
          "internalType": "string",
          "name": "",
          "type": "string"
        }
      ],
      "stateMutability": "view",
      "type": "function"
    },
    {
      "inputs": [
        {
          "internalType": "uint256",
          "name": "tokenId",
          "type": "uint256"
        }
      ],
      "name": "tokenURI",
      "outputs": [
        {
          "internalType": "string",
          "name": "",
          "type": "string"
        }
      ],
      "stateMutability": "view",
      "type": "function"
    },
    {
      "inputs": [
        {
          "internalType": "address",
          "name": "from",
          "type": "address"
        },
        {
          "internalType": "address",
          "name": "to",
          "type": "address"
        },
        {
          "internalType": "uint256",
          "name": "tokenId",
          "type": "uint256"
        }
      ],
      "name": "transferFrom",
      "outputs": [],
      "stateMutability": "nonpayable",
      "type": "function"
    },
    {
      "inputs": [
        {
          "internalType": "address",
          "name": "newOwner",
          "type": "address"
        }
      ],
      "name": "transferOwnership",
      "outputs": [],
      "stateMutability": "nonpayable",
      "type": "function"
    },
    {
      "inputs": [
        {
          "internalType": "address",
          "name": "",
          "type": "address"
        }
      ],
      "name": "userProfiles",
      "outputs": [
        {
          "internalType": "string",
          "name": "name",
          "type": "string"
        },
        {
          "internalType": "string",
          "name": "bio",
          "type": "string"
        },
        {
          "internalType": "string",
          "name": "picture",
          "type": "string"
        },
        {
          "internalType": "bool",
          "name": "walletConnected",
          "type": "bool"
        }
      ],
      "stateMutability": "view",
      "type": "function"
    }
  ],
  "bytecode": "0x60806040523480156200001157600080fd5b50336040518060400160405280600781526020017f4d79546f6b656e000000000000000000000000000000000000000000000000008152506040518060400160405280600381526020017f4d544b000000000000000000000000000000000000000000000000000000000081525081600090816200009091906200047a565b508060019081620000a291906200047a565b505050600073ffffffffffffffffffffffffffffffffffffffff168173ffffffffffffffffffffffffffffffffffffffff16036200011a5760006040517f1e4fbdf7000000000000000000000000000000000000000000000000000000008152600401620001119190620005a6565b60405180910390fd5b6200012b816200013a60201b60201c565b506000600781905550620005c3565b6000600660009054906101000a900473ffffffffffffffffffffffffffffffffffffffff16905081600660006101000a81548173ffffffffffffffffffffffffffffffffffffffff021916908373ffffffffffffffffffffffffffffffffffffffff1602179055508173ffffffffffffffffffffffffffffffffffffffff168173ffffffffffffffffffffffffffffffffffffffff167f8be0079c531659141344cd1fd0a4f28419497f9722a3daafe3b4186f6b6457e060405160405180910390a35050565b600081519050919050565b7f4e487b7100000000000000000000000000000000000000000000000000000000600052604160045260246000fd5b7f4e487b7100000000000000000000000000000000000000000000000000000000600052602260045260246000fd5b600060028204905060018216806200028257607f821691505b6020821081036200029857620002976200023a565b5b50919050565b60008190508160005260206000209050919050565b60006020601f8301049050919050565b600082821b905092915050565b600060088302620003027fffffffffffffffffffffffffffffffffffffffffffffffffffffffffffffffff82620002c3565b6200030e8683620002c3565b95508019841693508086168417925050509392505050565b6000819050919050565b6000819050919050565b60006200035b620003556200034f8462000326565b62000330565b62000326565b9050919050565b6000819050919050565b62000377836200033a565b6200038f620003868262000362565b848454620002d0565b825550505050565b600090565b620003a662000397565b620003b38184846200036c565b505050565b5b81811015620003db57620003cf6000826200039c565b600181019050620003b9565b5050565b601f8211156200042a57620003f4816200029e565b620003ff84620002b3565b810160208510156200040f578190505b620004276200041e85620002b3565b830182620003b8565b50505b505050565b600082821c905092915050565b60006200044f600019846008026200042f565b1980831691505092915050565b60006200046a83836200043c565b9150826002028217905092915050565b620004858262000200565b67ffffffffffffffff811115620004a157620004a06200020b565b5b620004ad825462000269565b620004ba828285620003df565b600060209050601f831160018114620004f25760008415620004dd578287015190505b620004e985826200045c565b86555062000559565b601f19841662000502866200029e565b60005b828110156200052c5784890151825560018201915060208501945060208101905062000505565b868310156200054c578489015162000548601f8916826200043c565b8355505b6001600288020188555050505b505050505050565b600073ffffffffffffffffffffffffffffffffffffffff82169050919050565b60006200058e8262000561565b9050919050565b620005a08162000581565b82525050565b6000602082019050620005bd600083018462000595565b92915050565b613ba880620005d36000396000f3fe608060405234801561001057600080fd5b50600436106101735760003560e01c80636386c1c7116100de578063b5c7e54811610097578063c87b56dd11610071578063c87b56dd1461044e578063d637dcfa1461047e578063e985e9c51461049a578063f2fde38b146104ca57610173565b8063b5c7e548146103e4578063b88d4fde14610402578063c60bc2ca1461041e57610173565b80636386c1c71461031f57806370a0823114610352578063715018a6146103825780638da5cb5b1461038c57806395d89b41146103aa578063a22cb465146103c857610173565b806323b872dd1161013057806323b872dd1461025e5780632d66f0631461027a578063332d56d71461028457806342842e0e146102b75780636011bedd146102d35780636352211e146102ef57610173565b806301ffc9a71461017857806306fdde03146101a857806307e7080a146101c6578063081812fc146101f6578063095ea7b3146102265780631107198814610242575b600080fd5b610192600480360381019061018d9190612ac1565b6104e6565b60405161019f9190612b09565b60405180910390f35b6101b06105c8565b6040516101bd9190612bb4565b60405180910390f35b6101e060048036038101906101db9190612c34565b61065a565b6040516101ed9190612d1f565b60405180910390f35b610210600480360381019061020b9190612d77565b610727565b60405161021d9190612db3565b60405180910390f35b610240600480360381019061023b9190612dce565b610743565b005b61025c60048036038101906102579190612c34565b610759565b005b61027860048036038101906102739190612e0e565b61099e565b005b610282610aa0565b005b61029e60048036038101906102999190612c34565b610c61565b6040516102ae9493929190612e61565b60405180910390f35b6102d160048036038101906102cc9190612e0e565b610e36565b005b6102ed60048036038101906102e89190612c34565b610e56565b005b61030960048036038101906103049190612d77565b61114d565b6040516103169190612db3565b60405180910390f35b61033960048036038101906103349190612c34565b61115f565b6040516103499493929190612e61565b60405180910390f35b61036c60048036038101906103679190612c34565b6113a8565b6040516103799190612eca565b60405180910390f35b61038a611462565b005b610394611476565b6040516103a19190612db3565b60405180910390f35b6103b26114a0565b6040516103bf9190612bb4565b60405180910390f35b6103e260048036038101906103dd9190612f11565b611532565b005b6103ec611548565b6040516103f99190612d1f565b60405180910390f35b61041c60048036038101906104179190613086565b611613565b005b61043860048036038101906104339190612c34565b611630565b6040516104459190612eca565b60405180910390f35b61046860048036038101906104639190612d77565b611679565b6040516104759190612bb4565b60405180910390f35b610498600480360381019061049391906131aa565b611711565b005b6104b460048036038101906104af9190613251565b6118c1565b6040516104c19190612b09565b60405180910390f35b6104e460048036038101906104df9190612c34565b611955565b005b60007f80ac58cd000000000000000000000000000000000000000000000000000000007bffffffffffffffffffffffffffffffffffffffffffffffffffffffff1916827bffffffffffffffffffffffffffffffffffffffffffffffffffffffff191614806105b157507f5b5e139f000000000000000000000000000000000000000000000000000000007bffffffffffffffffffffffffffffffffffffffffffffffffffffffff1916827bffffffffffffffffffffffffffffffffffffffffffffffffffffffff1916145b806105c157506105c0826119db565b5b9050919050565b6060600080546105d7906132c0565b80601f0160208091040260200160405190810160405280929190818152602001828054610603906132c0565b80156106505780601f1061062557610100808354040283529160200191610650565b820191906000526020600020905b81548152906001019060200180831161063357829003601f168201915b5050505050905090565b6060600860008373ffffffffffffffffffffffffffffffffffffffff1673ffffffffffffffffffffffffffffffffffffffff16815260200190815260200160002080548060200260200160405190810160405280929190818152602001828054801561071b57602002820191906000526020600020905b8160009054906101000a900473ffffffffffffffffffffffffffffffffffffffff1673ffffffffffffffffffffffffffffffffffffffff16815260200190600101908083116106d1575b50505050509050919050565b600061073282611a45565b5061073c82611acd565b9050919050565b6107558282610750611b0a565b611b12565b5050565b6000600b60003373ffffffffffffffffffffffffffffffffffffffff1673ffffffffffffffffffffffffffffffffffffffff16815260200190815260200160002060000180546107a8906132c0565b9050036107ea576040517f08c379a00000000000000000000000000000000000000000000000000000000081526004016107e19061333d565b60405180910390fd5b3373ffffffffffffffffffffffffffffffffffffffff168173ffffffffffffffffffffffffffffffffffffffff1603610858576040517f08c379a000000000000000000000000000000000000000000000000000000000815260040161084f906133cf565b60405180910390fd5b61086181611b24565b156108a1576040517f08c379a000000000000000000000000000000000000000000000000000000000815260040161089890613487565b60405180910390fd5b600a60008273ffffffffffffffffffffffffffffffffffffffff1673ffffffffffffffffffffffffffffffffffffffff168152602001908152602001600020339080600181540180825580915050600190039060005260206000200160009091909190916101000a81548173ffffffffffffffffffffffffffffffffffffffff021916908373ffffffffffffffffffffffffffffffffffffffff1602179055508073ffffffffffffffffffffffffffffffffffffffff163373ffffffffffffffffffffffffffffffffffffffff167f8bf01521f32d8c695d2108401e83d05ec6c77cd5c8305e0cef61e320c185491960405160405180910390a350565b600073ffffffffffffffffffffffffffffffffffffffff168273ffffffffffffffffffffffffffffffffffffffff1603610a105760006040517f64a0ae92000000000000000000000000000000000000000000000000000000008152600401610a079190612db3565b60405180910390fd5b6000610a248383610a1f611b0a565b611cf4565b90508373ffffffffffffffffffffffffffffffffffffffff168173ffffffffffffffffffffffffffffffffffffffff1614610a9a578382826040517f64283d7b000000000000000000000000000000000000000000000000000000008152600401610a91939291906134a7565b60405180910390fd5b50505050565b6000600b60003373ffffffffffffffffffffffffffffffffffffffff1673ffffffffffffffffffffffffffffffffffffffff1681526020019081526020016000206000018054610aef906132c0565b905003610b31576040517f08c379a0000000000000000000000000000000000000000000000000000000008152600401610b289061333d565b60405180910390fd5b600b60003373ffffffffffffffffffffffffffffffffffffffff1673ffffffffffffffffffffffffffffffffffffffff16815260200190815260200160002060030160009054906101000a900460ff1615610bc1576040517f08c379a0000000000000000000000000000000000000000000000000000000008152600401610bb89061352a565b60405180910390fd5b6001600b60003373ffffffffffffffffffffffffffffffffffffffff1673ffffffffffffffffffffffffffffffffffffffff16815260200190815260200160002060030160006101000a81548160ff0219169083151502179055503373ffffffffffffffffffffffffffffffffffffffff167f1c072e5ba1f77c8500be2f4d3f2b949ba75c7b388393230124ca29b18b5b554f60405160405180910390a2565b600b602052806000526040600020600091509050806000018054610c84906132c0565b80601f0160208091040260200160405190810160405280929190818152602001828054610cb0906132c0565b8015610cfd5780601f10610cd257610100808354040283529160200191610cfd565b820191906000526020600020905b815481529060010190602001808311610ce057829003601f168201915b505050505090806001018054610d12906132c0565b80601f0160208091040260200160405190810160405280929190818152602001828054610d3e906132c0565b8015610d8b5780601f10610d6057610100808354040283529160200191610d8b565b820191906000526020600020905b815481529060010190602001808311610d6e57829003601f168201915b505050505090806002018054610da0906132c0565b80601f0160208091040260200160405190810160405280929190818152602001828054610dcc906132c0565b8015610e195780601f10610dee57610100808354040283529160200191610e19565b820191906000526020600020905b815481529060010190602001808311610dfc57829003601f168201915b5050505050908060030160009054906101000a900460ff16905084565b610e5183838360405180602001604052806000815250611613565b505050565b6000600b60003373ffffffffffffffffffffffffffffffffffffffff1673ffffffffffffffffffffffffffffffffffffffff1681526020019081526020016000206000018054610ea5906132c0565b905003610ee7576040517f08c379a0000000000000000000000000000000000000000000000000000000008152600401610ede9061333d565b60405180910390fd5b6000610ef282611f0e565b90507fffffffffffffffffffffffffffffffffffffffffffffffffffffffffffffffff8103610f56576040517f08c379a0000000000000000000000000000000000000000000000000000000008152600401610f4d906135bc565b60405180910390fd5b6000600a60003373ffffffffffffffffffffffffffffffffffffffff1673ffffffffffffffffffffffffffffffffffffffff1681526020019081526020016000208281548110610fa957610fa86135dc565b5b9060005260206000200160006101000a81548173ffffffffffffffffffffffffffffffffffffffff021916908373ffffffffffffffffffffffffffffffffffffffff160217905550600860003373ffffffffffffffffffffffffffffffffffffffff1673ffffffffffffffffffffffffffffffffffffffff168152602001908152602001600020829080600181540180825580915050600190039060005260206000200160009091909190916101000a81548173ffffffffffffffffffffffffffffffffffffffff021916908373ffffffffffffffffffffffffffffffffffffffff160217905550600960003373ffffffffffffffffffffffffffffffffffffffff1673ffffffffffffffffffffffffffffffffffffffff16815260200190815260200160002060008154809291906110e19061363a565b91905055503373ffffffffffffffffffffffffffffffffffffffff168273ffffffffffffffffffffffffffffffffffffffff167f7b2f5a6752bd6f4a88cba2c2e61e838ab41a256334ac692abe523832336a0e9360405160405180910390a361114933612019565b5050565b600061115882611a45565b9050919050565b6060806060600080600b60008773ffffffffffffffffffffffffffffffffffffffff1673ffffffffffffffffffffffffffffffffffffffff1681526020019081526020016000206040518060800160405290816000820180546111c1906132c0565b80601f01602080910402602001604051908101604052809291908181526020018280546111ed906132c0565b801561123a5780601f1061120f5761010080835404028352916020019161123a565b820191906000526020600020905b81548152906001019060200180831161121d57829003601f168201915b50505050508152602001600182018054611253906132c0565b80601f016020809104026020016040519081016040528092919081815260200182805461127f906132c0565b80156112cc5780601f106112a1576101008083540402835291602001916112cc565b820191906000526020600020905b8154815290600101906020018083116112af57829003601f168201915b505050505081526020016002820180546112e5906132c0565b80601f0160208091040260200160405190810160405280929190818152602001828054611311906132c0565b801561135e5780601f106113335761010080835404028352916020019161135e565b820191906000526020600020905b81548152906001019060200180831161134157829003601f168201915b505050505081526020016003820160009054906101000a900460ff161515151581525050905080600001518160200151826040015183606001519450945094509450509193509193565b60008073ffffffffffffffffffffffffffffffffffffffff168273ffffffffffffffffffffffffffffffffffffffff160361141b5760006040517f89c62b640000000000000000000000000000000000000000000000000000000081526004016114129190612db3565b60405180910390fd5b600360008373ffffffffffffffffffffffffffffffffffffffff1673ffffffffffffffffffffffffffffffffffffffff168152602001908152602001600020549050919050565b61146a6120fe565b6114746000612185565b565b6000600660009054906101000a900473ffffffffffffffffffffffffffffffffffffffff16905090565b6060600180546114af906132c0565b80601f01602080910402602001604051908101604052809291908181526020018280546114db906132c0565b80156115285780601f106114fd57610100808354040283529160200191611528565b820191906000526020600020905b81548152906001019060200180831161150b57829003601f168201915b5050505050905090565b61154461153d611b0a565b838361224b565b5050565b6060600a60003373ffffffffffffffffffffffffffffffffffffffff1673ffffffffffffffffffffffffffffffffffffffff16815260200190815260200160002080548060200260200160405190810160405280929190818152602001828054801561160957602002820191906000526020600020905b8160009054906101000a900473ffffffffffffffffffffffffffffffffffffffff1673ffffffffffffffffffffffffffffffffffffffff16815260200190600101908083116115bf575b5050505050905090565b61161e84848461099e565b61162a848484846123ba565b50505050565b6000600960008373ffffffffffffffffffffffffffffffffffffffff1673ffffffffffffffffffffffffffffffffffffffff168152602001908152602001600020549050919050565b60603373ffffffffffffffffffffffffffffffffffffffff1661169b8361114d565b73ffffffffffffffffffffffffffffffffffffffff16146116f1576040517f08c379a00000000000000000000000000000000000000000000000000000000081526004016116e8906136ce565b60405180910390fd5b604051806080016040528060428152602001613b31604291399050919050565b6000600b60003373ffffffffffffffffffffffffffffffffffffffff1673ffffffffffffffffffffffffffffffffffffffff1681526020019081526020016000206000018054611760906132c0565b9050146117a2576040517f08c379a00000000000000000000000000000000000000000000000000000000081526004016117999061373a565b60405180910390fd5b604051806080016040528084815260200183815260200182815260200160001515815250600b60003373ffffffffffffffffffffffffffffffffffffffff1673ffffffffffffffffffffffffffffffffffffffff168152602001908152602001600020600082015181600001908161181a9190613906565b5060208201518160010190816118309190613906565b5060408201518160020190816118469190613906565b5060608201518160030160006101000a81548160ff0219169083151502179055509050503373ffffffffffffffffffffffffffffffffffffffff167f509c70f523067009f7db7f46db6956d7af8b679323680dc3821a8bad001ac1e18484846040516118b4939291906139d8565b60405180910390a2505050565b6000600560008473ffffffffffffffffffffffffffffffffffffffff1673ffffffffffffffffffffffffffffffffffffffff16815260200190815260200160002060008373ffffffffffffffffffffffffffffffffffffffff1673ffffffffffffffffffffffffffffffffffffffff16815260200190815260200160002060009054906101000a900460ff16905092915050565b61195d6120fe565b600073ffffffffffffffffffffffffffffffffffffffff168173ffffffffffffffffffffffffffffffffffffffff16036119cf5760006040517f1e4fbdf70000000000000000000000000000000000000000000000000000000081526004016119c69190612db3565b60405180910390fd5b6119d881612185565b50565b60007f01ffc9a7000000000000000000000000000000000000000000000000000000007bffffffffffffffffffffffffffffffffffffffffffffffffffffffff1916827bffffffffffffffffffffffffffffffffffffffffffffffffffffffff1916149050919050565b600080611a5183612571565b9050600073ffffffffffffffffffffffffffffffffffffffff168173ffffffffffffffffffffffffffffffffffffffff1603611ac457826040517f7e273289000000000000000000000000000000000000000000000000000000008152600401611abb9190612eca565b60405180910390fd5b80915050919050565b60006004600083815260200190815260200160002060009054906101000a900473ffffffffffffffffffffffffffffffffffffffff169050919050565b600033905090565b611b1f83838360016125ae565b505050565b600080600860008473ffffffffffffffffffffffffffffffffffffffff1673ffffffffffffffffffffffffffffffffffffffff168152602001908152602001600020905060005b8180549050811015611c05573373ffffffffffffffffffffffffffffffffffffffff16828281548110611ba157611ba06135dc565b5b9060005260206000200160009054906101000a900473ffffffffffffffffffffffffffffffffffffffff1673ffffffffffffffffffffffffffffffffffffffff1603611bf257600192505050611cef565b8080611bfd9061363a565b915050611b6b565b506000600a60008573ffffffffffffffffffffffffffffffffffffffff1673ffffffffffffffffffffffffffffffffffffffff168152602001908152602001600020905060005b8180549050811015611ce7573373ffffffffffffffffffffffffffffffffffffffff16828281548110611c8257611c816135dc565b5b9060005260206000200160009054906101000a900473ffffffffffffffffffffffffffffffffffffffff1673ffffffffffffffffffffffffffffffffffffffff1603611cd45760019350505050611cef565b8080611cdf9061363a565b915050611c4c565b506000925050505b919050565b600080611d0084612571565b9050600073ffffffffffffffffffffffffffffffffffffffff168373ffffffffffffffffffffffffffffffffffffffff1614611d4257611d41818486612773565b5b600073ffffffffffffffffffffffffffffffffffffffff168173ffffffffffffffffffffffffffffffffffffffff1614611dd357611d846000856000806125ae565b6001600360008373ffffffffffffffffffffffffffffffffffffffff1673ffffffffffffffffffffffffffffffffffffffff168152602001908152602001600020600082825403925050819055505b600073ffffffffffffffffffffffffffffffffffffffff168573ffffffffffffffffffffffffffffffffffffffff1614611e56576001600360008773ffffffffffffffffffffffffffffffffffffffff1673ffffffffffffffffffffffffffffffffffffffff168152602001908152602001600020600082825401925050819055505b846002600086815260200190815260200160002060006101000a81548173ffffffffffffffffffffffffffffffffffffffff021916908373ffffffffffffffffffffffffffffffffffffffff160217905550838573ffffffffffffffffffffffffffffffffffffffff168273ffffffffffffffffffffffffffffffffffffffff167fddf252ad1be2c89b69c2b068fc378daa952ba7f163c4a11628f55a4df523b3ef60405160405180910390a4809150509392505050565b600080600a60003373ffffffffffffffffffffffffffffffffffffffff1673ffffffffffffffffffffffffffffffffffffffff168152602001908152602001600020905060005b8180549050811015611fee578373ffffffffffffffffffffffffffffffffffffffff16828281548110611f8b57611f8a6135dc565b5b9060005260206000200160009054906101000a900473ffffffffffffffffffffffffffffffffffffffff1673ffffffffffffffffffffffffffffffffffffffff1603611fdb578092505050612014565b8080611fe69061363a565b915050611f55565b507fffffffffffffffffffffffffffffffffffffffffffffffffffffffffffffffff9150505b919050565b6000600b60003373ffffffffffffffffffffffffffffffffffffffff1673ffffffffffffffffffffffffffffffffffffffff1681526020019081526020016000206000018054612068906132c0565b9050036120aa576040517f08c379a00000000000000000000000000000000000000000000000000000000081526004016120a19061333d565b60405180910390fd5b6005600960008373ffffffffffffffffffffffffffffffffffffffff1673ffffffffffffffffffffffffffffffffffffffff16815260200190815260200160002054106120fb576120f9612837565b505b50565b612106611b0a565b73ffffffffffffffffffffffffffffffffffffffff16612124611476565b73ffffffffffffffffffffffffffffffffffffffff161461218357612147611b0a565b6040517f118cdaa700000000000000000000000000000000000000000000000000000000815260040161217a9190612db3565b60405180910390fd5b565b6000600660009054906101000a900473ffffffffffffffffffffffffffffffffffffffff16905081600660006101000a81548173ffffffffffffffffffffffffffffffffffffffff021916908373ffffffffffffffffffffffffffffffffffffffff1602179055508173ffffffffffffffffffffffffffffffffffffffff168173ffffffffffffffffffffffffffffffffffffffff167f8be0079c531659141344cd1fd0a4f28419497f9722a3daafe3b4186f6b6457e060405160405180910390a35050565b600073ffffffffffffffffffffffffffffffffffffffff168273ffffffffffffffffffffffffffffffffffffffff16036122bc57816040517f5b08ba180000000000000000000000000000000000000000000000000000000081526004016122b39190612db3565b60405180910390fd5b80600560008573ffffffffffffffffffffffffffffffffffffffff1673ffffffffffffffffffffffffffffffffffffffff16815260200190815260200160002060008473ffffffffffffffffffffffffffffffffffffffff1673ffffffffffffffffffffffffffffffffffffffff16815260200190815260200160002060006101000a81548160ff0219169083151502179055508173ffffffffffffffffffffffffffffffffffffffff168373ffffffffffffffffffffffffffffffffffffffff167f17307eab39ab6107e8899845ad3d59bd9653f200f220920489ca2b5937696c31836040516123ad9190612b09565b60405180910390a3505050565b60008373ffffffffffffffffffffffffffffffffffffffff163b111561256b578273ffffffffffffffffffffffffffffffffffffffff1663150b7a026123fe611b0a565b8685856040518563ffffffff1660e01b81526004016124209493929190613a79565b6020604051808303816000875af192505050801561245c57506040513d601f19601f820116820180604052508101906124599190613ada565b60015b6124e0573d806000811461248c576040519150601f19603f3d011682016040523d82523d6000602084013e612491565b606091505b5060008151036124d857836040517f64a0ae920000000000000000000000000000000000000000000000000000000081526004016124cf9190612db3565b60405180910390fd5b805181602001fd5b63150b7a0260e01b7bffffffffffffffffffffffffffffffffffffffffffffffffffffffff1916817bffffffffffffffffffffffffffffffffffffffffffffffffffffffff19161461256957836040517f64a0ae920000000000000000000000000000000000000000000000000000000081526004016125609190612db3565b60405180910390fd5b505b50505050565b60006002600083815260200190815260200160002060009054906101000a900473ffffffffffffffffffffffffffffffffffffffff169050919050565b80806125e75750600073ffffffffffffffffffffffffffffffffffffffff168273ffffffffffffffffffffffffffffffffffffffff1614155b1561271b5760006125f784611a45565b9050600073ffffffffffffffffffffffffffffffffffffffff168373ffffffffffffffffffffffffffffffffffffffff161415801561266257508273ffffffffffffffffffffffffffffffffffffffff168173ffffffffffffffffffffffffffffffffffffffff1614155b8015612675575061267381846118c1565b155b156126b757826040517fa9fbf51f0000000000000000000000000000000000000000000000000000000081526004016126ae9190612db3565b60405180910390fd5b811561271957838573ffffffffffffffffffffffffffffffffffffffff168273ffffffffffffffffffffffffffffffffffffffff167f8c5be1e5ebec7d5bd14f71427d1e84f3dd0314c0f7b2291e5b200ac8c7c3b92560405160405180910390a45b505b836004600085815260200190815260200160002060006101000a81548173ffffffffffffffffffffffffffffffffffffffff021916908373ffffffffffffffffffffffffffffffffffffffff16021790555050505050565b61277e838383612861565b61283257600073ffffffffffffffffffffffffffffffffffffffff168373ffffffffffffffffffffffffffffffffffffffff16036127f357806040517f7e2732890000000000000000000000000000000000000000000000000000000081526004016127ea9190612eca565b60405180910390fd5b81816040517f177e802f000000000000000000000000000000000000000000000000000000008152600401612829929190613b07565b60405180910390fd5b505050565b600061285933600760008154809291906128509061363a565b91905055612922565b600754905090565b60008073ffffffffffffffffffffffffffffffffffffffff168373ffffffffffffffffffffffffffffffffffffffff161415801561291957508273ffffffffffffffffffffffffffffffffffffffff168473ffffffffffffffffffffffffffffffffffffffff1614806128da57506128d984846118c1565b5b8061291857508273ffffffffffffffffffffffffffffffffffffffff1661290083611acd565b73ffffffffffffffffffffffffffffffffffffffff16145b5b90509392505050565b61293c828260405180602001604052806000815250612940565b5050565b61294a838361295c565b61295760008484846123ba565b505050565b600073ffffffffffffffffffffffffffffffffffffffff168273ffffffffffffffffffffffffffffffffffffffff16036129ce5760006040517f64a0ae920000000000000000000000000000000000000000000000000000000081526004016129c59190612db3565b60405180910390fd5b60006129dc83836000611cf4565b9050600073ffffffffffffffffffffffffffffffffffffffff168173ffffffffffffffffffffffffffffffffffffffff1614612a505760006040517f73c6ac6e000000000000000000000000000000000000000000000000000000008152600401612a479190612db3565b60405180910390fd5b505050565b6000604051905090565b600080fd5b600080fd5b60007fffffffff0000000000000000000000000000000000000000000000000000000082169050919050565b612a9e81612a69565b8114612aa957600080fd5b50565b600081359050612abb81612a95565b92915050565b600060208284031215612ad757612ad6612a5f565b5b6000612ae584828501612aac565b91505092915050565b60008115159050919050565b612b0381612aee565b82525050565b6000602082019050612b1e6000830184612afa565b92915050565b600081519050919050565b600082825260208201905092915050565b60005b83811015612b5e578082015181840152602081019050612b43565b60008484015250505050565b6000601f19601f8301169050919050565b6000612b8682612b24565b612b908185612b2f565b9350612ba0818560208601612b40565b612ba981612b6a565b840191505092915050565b60006020820190508181036000830152612bce8184612b7b565b905092915050565b600073ffffffffffffffffffffffffffffffffffffffff82169050919050565b6000612c0182612bd6565b9050919050565b612c1181612bf6565b8114612c1c57600080fd5b50565b600081359050612c2e81612c08565b92915050565b600060208284031215612c4a57612c49612a5f565b5b6000612c5884828501612c1f565b91505092915050565b600081519050919050565b600082825260208201905092915050565b6000819050602082019050919050565b612c9681612bf6565b82525050565b6000612ca88383612c8d565b60208301905092915050565b6000602082019050919050565b6000612ccc82612c61565b612cd68185612c6c565b9350612ce183612c7d565b8060005b83811015612d12578151612cf98882612c9c565b9750612d0483612cb4565b925050600181019050612ce5565b5085935050505092915050565b60006020820190508181036000830152612d398184612cc1565b905092915050565b6000819050919050565b612d5481612d41565b8114612d5f57600080fd5b50565b600081359050612d7181612d4b565b92915050565b600060208284031215612d8d57612d8c612a5f565b5b6000612d9b84828501612d62565b91505092915050565b612dad81612bf6565b82525050565b6000602082019050612dc86000830184612da4565b92915050565b60008060408385031215612de557612de4612a5f565b5b6000612df385828601612c1f565b9250506020612e0485828601612d62565b9150509250929050565b600080600060608486031215612e2757612e26612a5f565b5b6000612e3586828701612c1f565b9350506020612e4686828701612c1f565b9250506040612e5786828701612d62565b9150509250925092565b60006080820190508181036000830152612e7b8187612b7b565b90508181036020830152612e8f8186612b7b565b90508181036040830152612ea38185612b7b565b9050612eb26060830184612afa565b95945050505050565b612ec481612d41565b82525050565b6000602082019050612edf6000830184612ebb565b92915050565b612eee81612aee565b8114612ef957600080fd5b50565b600081359050612f0b81612ee5565b92915050565b60008060408385031215612f2857612f27612a5f565b5b6000612f3685828601612c1f565b9250506020612f4785828601612efc565b9150509250929050565b600080fd5b600080fd5b7f4e487b7100000000000000000000000000000000000000000000000000000000600052604160045260246000fd5b612f9382612b6a565b810181811067ffffffffffffffff82111715612fb257612fb1612f5b565b5b80604052505050565b6000612fc5612a55565b9050612fd18282612f8a565b919050565b600067ffffffffffffffff821115612ff157612ff0612f5b565b5b612ffa82612b6a565b9050602081019050919050565b82818337600083830152505050565b600061302961302484612fd6565b612fbb565b90508281526020810184848401111561304557613044612f56565b5b613050848285613007565b509392505050565b600082601f83011261306d5761306c612f51565b5b813561307d848260208601613016565b91505092915050565b600080600080608085870312156130a05761309f612a5f565b5b60006130ae87828801612c1f565b94505060206130bf87828801612c1f565b93505060406130d087828801612d62565b925050606085013567ffffffffffffffff8111156130f1576130f0612a64565b5b6130fd87828801613058565b91505092959194509250565b600067ffffffffffffffff82111561312457613123612f5b565b5b61312d82612b6a565b9050602081019050919050565b600061314d61314884613109565b612fbb565b90508281526020810184848401111561316957613168612f56565b5b613174848285613007565b509392505050565b600082601f83011261319157613190612f51565b5b81356131a184826020860161313a565b91505092915050565b6000806000606084860312156131c3576131c2612a5f565b5b600084013567ffffffffffffffff8111156131e1576131e0612a64565b5b6131ed8682870161317c565b935050602084013567ffffffffffffffff81111561320e5761320d612a64565b5b61321a8682870161317c565b925050604084013567ffffffffffffffff81111561323b5761323a612a64565b5b6132478682870161317c565b9150509250925092565b6000806040838503121561326857613267612a5f565b5b600061327685828601612c1f565b925050602061328785828601612c1f565b9150509250929050565b7f4e487b7100000000000000000000000000000000000000000000000000000000600052602260045260246000fd5b600060028204905060018216806132d857607f821691505b6020821081036132eb576132ea613291565b5b50919050565b7f5573657220646f6573206e6f7420657869737400000000000000000000000000600082015250565b6000613327601383612b2f565b9150613332826132f1565b602082019050919050565b600060208201905081810360008301526133568161331a565b9050919050565b7f43616e6e6f742073656e6420737562736372697074696f6e207265717565737460008201527f20746f20796f757273656c660000000000000000000000000000000000000000602082015250565b60006133b9602c83612b2f565b91506133c48261335d565b604082019050919050565b600060208201905081810360008301526133e8816133ac565b9050919050565b7f43616e6e6f742073656e6420737562736372697074696f6e207265717565737460008201527f20696620616c72656164792073756273637269626564206f7220696e2074686560208201527f20776169746c6973740000000000000000000000000000000000000000000000604082015250565b6000613471604983612b2f565b915061347c826133ef565b606082019050919050565b600060208201905081810360008301526134a081613464565b9050919050565b60006060820190506134bc6000830186612da4565b6134c96020830185612ebb565b6134d66040830184612da4565b949350505050565b7f57616c6c657420616c726561647920636f6e6e65637465640000000000000000600082015250565b6000613514601883612b2f565b915061351f826134de565b602082019050919050565b6000602082019050818103600083015261354381613507565b9050919050565b7f4e6f20737562736372697074696f6e20726571756573742066726f6d2074686960008201527f7320616464726573730000000000000000000000000000000000000000000000602082015250565b60006135a6602983612b2f565b91506135b18261354a565b604082019050919050565b600060208201905081810360008301526135d581613599565b9050919050565b7f4e487b7100000000000000000000000000000000000000000000000000000000600052603260045260246000fd5b7f4e487b7100000000000000000000000000000000000000000000000000000000600052601160045260246000fd5b600061364582612d41565b91507fffffffffffffffffffffffffffffffffffffffffffffffffffffffffffffffff82036136775761367661360b565b5b600182019050919050565b7f596f7520646f6e742068617665204e465420746f6b656e000000000000000000600082015250565b60006136b8601783612b2f565b91506136c382613682565b602082019050919050565b600060208201905081810360008301526136e7816136ab565b9050919050565b7f5573657220616c72656164792072656769737465726564000000000000000000600082015250565b6000613724601783612b2f565b915061372f826136ee565b602082019050919050565b6000602082019050818103600083015261375381613717565b9050919050565b60008190508160005260206000209050919050565b60006020601f8301049050919050565b600082821b905092915050565b6000600883026137bc7fffffffffffffffffffffffffffffffffffffffffffffffffffffffffffffffff8261377f565b6137c6868361377f565b95508019841693508086168417925050509392505050565b6000819050919050565b60006138036137fe6137f984612d41565b6137de565b612d41565b9050919050565b6000819050919050565b61381d836137e8565b6138316138298261380a565b84845461378c565b825550505050565b600090565b613846613839565b613851818484613814565b505050565b5b818110156138755761386a60008261383e565b600181019050613857565b5050565b601f8211156138ba5761388b8161375a565b6138948461376f565b810160208510156138a3578190505b6138b76138af8561376f565b830182613856565b50505b505050565b600082821c905092915050565b60006138dd600019846008026138bf565b1980831691505092915050565b60006138f683836138cc565b9150826002028217905092915050565b61390f82612b24565b67ffffffffffffffff81111561392857613927612f5b565b5b61393282546132c0565b61393d828285613879565b600060209050601f831160018114613970576000841561395e578287015190505b61396885826138ea565b8655506139d0565b601f19841661397e8661375a565b60005b828110156139a657848901518255600182019150602085019450602081019050613981565b868310156139c357848901516139bf601f8916826138cc565b8355505b6001600288020188555050505b505050505050565b600060608201905081810360008301526139f28186612b7b565b90508181036020830152613a068185612b7b565b90508181036040830152613a1a8184612b7b565b9050949350505050565b600081519050919050565b600082825260208201905092915050565b6000613a4b82613a24565b613a558185613a2f565b9350613a65818560208601612b40565b613a6e81612b6a565b840191505092915050565b6000608082019050613a8e6000830187612da4565b613a9b6020830186612da4565b613aa86040830185612ebb565b8181036060830152613aba8184613a40565b905095945050505050565b600081519050613ad481612a95565b92915050565b600060208284031215613af057613aef612a5f565b5b6000613afe84828501613ac5565b91505092915050565b6000604082019050613b1c6000830185612da4565b613b296020830184612ebb565b939250505056fe697066733a2f2f6261666b726569687a343462656f61737463616c62666f797a62727965337170716863626b68696e63736b75616c346d787261376367716d663334a264697066735822122039ccdddd47b58eadc18bf139d81c1c122a80d0616fda882143e54339e24dfe9b64736f6c63430008140033",
  "linkReferences": {},
  "deployedLinkReferences": {}
}